:100000000C9434000C9451000C9451000C94510049
:100010000C9451000C9451000C94BC000C945100B1
:100020000C9451000C9451000C9451000C9451000C
:100030000C9451000C9451000C9451000C945100FC
:100040000C9451000C9451000C9451000C945100EC
:100050000C9451000C9451000C9451000C945100DC
:100060000C9451000C94510011241FBECFEFD8E026
:10007000DEBFCDBF12E0A0E0B1E0E6E5FBE202C0EA
:1000800005900D92A235B107D9F713E0A2E5B2E0D1
:1000900001C01D92A034B107E1F70E94F6020C9452
:1000A000A9150C940000AF92BF92CF92DF92EF920D
:1000B000FF920F931F9359016A010E940A0E9B0140
:1000C000AC01C801B7010E94680E9B01AC01C601DA
:1000D000B5010E943B0E1F910F91FF90EF90DF90B2
:1000E000CF90BF90AF900895AF92BF92CF92DF9222
:1000F000EF92FF920F931F93D62EC72EB82EA92EE4
:1001000079018A01CA01B9012DEC3CEC4CEC5DE3AC
:100110000E940A0E9B01AC016D2D7C2D8B2D9A2D1A
:100120000E943E101816ECF06DEC7CEC8CEC9DE31C
:10013000A80197010E940A0E9B01AC016D2D7C2D38
:100140008B2D9A2D0E949E1087FD07C08D2D9C2D12
:10015000AB2DBA2D7C018D0104C017FB109517F94A
:100160001095B701C8011F910F91FF90EF90DF909C
:10017000CF90BF90AF9008951F920F920FB60F923D
:1001800011248F929F92AF92BF92CF92DF92EF9203
:10019000FF920F931F932F933F934F935F936F9310
:1001A0007F938F939F93AF93BF93CF93DF93EF93FF
:1001B000FF9380917C008C7F80937C0080917A00FB
:1001C000806480937A0080917A0086FDFCCF6091F4
:1001D00078007091790080917C008C7F81608093A1
:1001E0007C0080917A00806480937A0080917A000C
:1001F00086FDFCCFC0917800D091790080917C0081
:100200008C7F826080937C0080917A0080648093F0
:100210007A0080917A0086FDFCCF809078009090E3
:10022000790080E090E00E948011209100013091DF
:10023000010140910201509103010E940A0E209198
:100240000C0130910D0140910E0150910F010E945F
:10025000680E5B016C0126E636E646E65FE30E9427
:100260003E1018165CF40F2EF0E0AF2EF0E0BF2E1B
:10027000F0E8CF2EFFE3DF2EF02D1FC0C601B50141
:1002800026E636E646E65FEB0E949E1087FD8DC1AE
:10029000C601B50120E030E040E85FE30E943E1077
:1002A00018165CF40F2EF0E0AF2EF0E0BF2EF0E851
:1002B000CF2EFFE3DF2EF02D14C0C601B50120E0E4
:1002C00030E040E85FEB0E949E10882354F40F2E2C
:1002D000F0E0AF2EF0E0BF2EF0E8CF2EFFEBDF2EE8
:1002E000F02DE0905A02F0905B0200915C021091B8
:1002F0005D02C601B501A80197010E940A0E2AE914
:1003000039E949E95EE30E94680E9B01AC01C8012E
:10031000B7010E943B0E60935A0270935B02809378
:100320005C0290935D029F7720E030E04FE753E45A
:100330000E94680E0E94920C67BDBE0180E090E0B2
:100340000E94801120910401309105014091060125
:10035000509107010E940A0E209110013091110165
:1003600040911201509113010E94680E5B016C01D3
:1003700026E636E646E65FE30E943E1018165CF479
:100380000F2EF0E0AF2EF0E0BF2EF0E8CF2EFFE30F
:10039000DF2EF02D1FC0C601B50126E636E646E683
:1003A0005FEB0E949E1087FD0BC1C601B50120E0E6
:1003B00030E040E85FE30E943E1018165CF40F2E18
:1003C000F0E0AF2EF0E0BF2EF0E8CF2EFFE3DF2EFF
:1003D000F02D14C0C601B50120E030E040E85FEB2D
:1003E0000E949E10882354F40F2EF0E0AF2EF0E010
:1003F000BF2EF0E8CF2EFFEBDF2EF02DE0905E0257
:10040000F0905F020091600210916102C601B50197
:10041000A80197010E940A0E2AE939E949E95EE339
:100420000E94680E9B01AC01C801B7010E943B0EFF
:1004300060935E0270935F0280936002909361020A
:100440009F7720E030E04FE753E40E94680E0E945F
:10045000920C68BDB40180E090E00E948011209170
:1004600008013091090140910A0150910B010E944D
:100470000A0E2091140130911501409116015091FE
:1004800017010E94680E5B016C0126E636E646E61F
:100490005FE30E943E1018165CF40F2EF0E0AF2EC2
:1004A000F0E0BF2EF0E8CF2EFFE3DF2EF02D1FC0CF
:1004B000C601B50126E636E646E65FEB0E949E10D1
:1004C00087FD89C0C601B50120E030E040E85FE368
:1004D0000E943E1018165CF40F2EF0E0AF2EF0E0F4
:1004E000BF2EF0E8CF2EFFE3DF2EF02D14C0C601A3
:1004F000B50120E030E040E85FEB0E949E108823C9
:1005000054F40F2EF0E0AF2EF0E0BF2EF0E8CF2E27
:10051000FFEBDF2EF02DE0905602F0905702009195
:10052000580210915902C601B501A80197010E9415
:100530000A0E2AE939E949E95EE30E94680E9B0147
:10054000AC01C801B7010E943B0E60935602709344
:10055000570280935802909359029F7720E030E031
:100560004FE753E40E94680E0E94920C6093B30020
:10057000FF91EF91DF91CF91BF91AF919F918F91BB
:100580007F916F915F914F913F912F911F910F91AB
:10059000FF90EF90DF90CF90BF90AF909F908F90A3
:1005A0000F900FBE0F901F9018950F2EF0E0AF2EFA
:1005B000F0E0BF2EF0E8CF2EFFEBDF2EF02D7DCE4A
:1005C0000F2EF0E0AF2EF0E0BF2EF0E8CF2EFFEBC5
:1005D000DF2EF02DFFCE0F2EF0E0AF2EF0E0BF2E7D
:1005E000F0E8CF2EFFEBDF2EF02D81CF8AB18066B1
:1005F0008AB9239AF999FECF80E090E00E947015A5
:10060000813019F08F3F09F066C00E941A0C0E94D9
:10061000D10B4091240350912503609126037091E2
:10062000270381E090E00E948C15409128035091AF
:10063000290360912A0370912B0385E090E00E94CA
:100640008C1540912C0350912D0360912E037091D5
:100650002F0389E090E00E948C1540913003509167
:10066000310360913203709133038DE090E00E947A
:100670008C1540913403509135036091360370918D
:10068000370381E190E00E948C154091380350912E
:10069000390360913A0370913B0385E190E00E9439
:1006A0008C15F999FECF80E090E060E00E947E1505
:1006B00028EC30E05D9A80ED97E0F9013197F1F791
:1006C0000197D9F75D9880ED97E0F9013197F1F73F
:1006D0000197D9F7EFCF84EF91E028EC30E0F901F2
:1006E0003197F1F70197D9F7F999FECF80E090E0C3
:1006F00061E00E947E158BB180668BB92B9A80E1F8
:1007000097E228EC30E0F9013197F1F70197D9F73A
:10071000F999FECF80E090E060E00E947E158BB1F9
:100720008F798BB92B9880E197E228EC30E0F901C2
:100730003197F1F70197D9F7F999FECF81E090E071
:100740000E9478156093000170930101809302016B
:100750009093030185E090E00E9478156093040176
:1007600070930501809306019093070189E090E062
:100770000E947815609308017093090180930A0123
:1007800090930B018DE090E00E94781560930C012E
:1007900070930D0180930E0190930F0181E190E021
:1007A0000E947815609310017093110180931201DB
:1007B0009093130185E190E00E94781560931401F5
:1007C0007093150180931601909317018091640036
:1007D0008E688093640080B7806880BF209A83EA27
:1007E00084BD92E095BD83E88093B0009093B10002
:1007F00080917A00866080937A0080917E008F637A
:1008000080937E0080917A00806880937A00809146
:100810006000806480936000789481E083BF889555
:10082000FDCF90917C008F70907F892B80937C000E
:1008300080917A00806480937A0080917A0086FDAE
:10084000FCCF2091780030917900C90108952F9252
:100850003F924F925F926F927F928F929F92AF9250
:10086000BF92CF92DF92EF92FF920F931F93DF938D
:10087000CF93CDB7DEB7C854D0400FB6F894DEBFE3
:100880000FBECDBF25969FAF8EAF259704962796B6
:100890009FAF8EAF279725962EAD3FAD25972E5F44
:1008A0003F4F29963FAF2EAF2997DE011196E7E320
:1008B000F1E08CE001900D928150E1F7DE011D9690
:1008C000EBE2F1E08CE001900D928150E1F7DE0166
:1008D0005996EFE1F1E08CE001900D928150E1F743
:1008E0008D899E89AF89B88D8FAB98AFA9AFBAAF0C
:1008F00029893A894B895C892BAB3CAB4DAB5EAB0C
:100900002D843E844F84588889859A85AB85BC8523
:100910008FA798ABA9ABBAAB2D813E814F8158858B
:100920002BA73CA74DA75EA789819A81AB81BC818B
:100930008FA398A7A9A7BAA71EA21DA280E00E9414
:1009400011047C0100E010E080ED97E00197F1F7E1
:1009500081E00E9411045C01CC24DD2480ED97E04D
:100960000197F1F782E00E9411043C018824992448
:1009700080EA9CE80197F1F72FA138A549A55AA56F
:100980002E0D3F1D401F511F2FA338A749A75AA75F
:100990008BA59CA5ADA5BEA58A0D9B1DAC1DBD1D3F
:1009A0008BA79CA7ADA7BEA72FA538A949A95AA96F
:1009B000260D371D481D591D2FA738AB49AB5AAB23
:1009C000C801B701A80197010E94EE13260E371E39
:1009D000481E591EC601B501A60195010E94EE13DD
:1009E0002BA93CA94DA95EA9260F371F481F591FE7
:1009F0002BAB3CAB4DAB5EABC401B301A401930187
:100A00000E94EE132FA938AD49AD5AAD260F371FFE
:100A1000481F591F2FAB38AF49AF5AAF4DA15EA148
:100A20004F5F5F4F5EA34DA34032510509F086CF63
:100A30008FA998ADA9ADBAAD8D8B9E8BAF8BB88FBA
:100A40002BA93CA94DA95EA9298B3A8B4B8B5C8BBA
:100A50002D863E864F86588A3FA5398748A94A8702
:100A600059A95B878AA98C879BA59D83ACA5AE837A
:100A7000BDA5BF83EEA5E887FFA1F98328A52A833A
:100A800039A53B834AA54C83AA24BB24E1E0F0E0CE
:100A9000EC0FFD1FEA0DFB1D208131814281538146
:100AA00069E1C62ED12CCC0EDD1ECA0CDB1CEDE09C
:100AB000F0E0EC0FFD1FEA0DFB1DE080F1800281EC
:100AC00013810894E11CF11C011D111DCA01B9011B
:100AD0000E94EE1355E096958795779567955A9500
:100AE000D1F7E61AF70A080B190BD601ED92FD9221
:100AF0000D931C931397E4E0F0E0AE0EBF1EFCE0F4
:100B0000AF16B10419F62996AEADBFAD29971D9267
:100B10001C922796EEADFFAD279711821082259685
:100B2000AEADBFAD25971D921C92898D9A8DAB8D70
:100B3000BC8D5C016D0143E0AA0CBB1CCC1CDD1C10
:100B40004A95D1F7A80EB91ECA1EDB1E8D8D9E8D4B
:100B5000AF8DB8A17C018D0133E0EE0CFF1C001FAE
:100B6000111F3A95D1F7E80EF91E0A1F1B1F89A124
:100B70009AA1ABA1BCA11C012D0123E0220C331CC6
:100B8000441C551C2A95D1F7280E391E4A1E5B1E9F
:100B9000882499241CAE1BAE66247724F5C080E01F
:100BA0000E94110423969FAF8EAF239780ED97E0AC
:100BB0000197F1F781E00E94110421969FAF8EAF5B
:100BC000219780ED97E00197F1F782E00E941104F0
:100BD0009EAF8DAF80EA9CE80197F1F72396EEADCA
:100BE000FFAD23979F0140E050E0B5E0220F331F97
:100BF000441F551FBA95D1F78FA198A5A9A5BAA5ED
:100C0000281B390B4A0B5B0BCA01B9010E94EE137A
:100C1000A5E09695879577956795AA95D1F76A157A
:100C20007B058C059D0508F07EC02196AEADBFAD5D
:100C300021979D0140E050E0F5E0220F331F441F53
:100C4000551FFA95D1F78BA59CA5ADA5BEA5281B70
:100C5000390B4A0B5B0BCA01B9010E94EE13E5E0A8
:100C60009695879577956795EA95D1F76E157F05E7
:100C70008007910708F057C0ADADBEAD9D0140E0C3
:100C800050E065E0220F331F441F551F6A95D1F7CE
:100C90008FA598A9A9A9BAA9281B390B4A0B5B0BE8
:100CA000CA01B9010E94EE1325E0969587957795C4
:100CB00067952A95D1F7621573058405950598F512
:100CC000ABADBCAD1196BCAFABAF2596EEADFFADF5
:100CD00025978081918123962EAD3FAD2397820F7A
:100CE000931F918380832996AEADBFAD29978D91D7
:100CF0009C9111972196EEADFFAD21978E0F9F1F0E
:100D00008D939C932796AEADBFAD27978D919C9107
:100D10001197EDADFEAD8E0F9F1F8D939C930894A0
:100D2000811C911C03C00894611C711C2BAD3CAD4F
:100D30002615370548F53BE0831691042CF12B9AD4
:100D400088EE93E0E8ECF0E03197F1F70197D1F706
:100D50002B9888EE93E0E8ECF0E03197F1F70197FB
:100D6000D1F72B9A88EE93E0E8ECF0E03197F1F7B9
:100D70000197D1F72B9888EE93E0E8ECF0E03197FB
:100D8000F1F70197D1F708C080911D0190911E01E4
:100D9000881699060CF403CF80911D0190911E01D5
:100DA0008816990609F081CD5E9A80ED97E028ECCF
:100DB00030E0F9013197F1F70197D9F75E9880EDAE
:100DC00097E028EC30E0F9013197F1F70197D9F776
:100DD0005E9A80ED97E028EC30E0F9013197F1F769
:100DE0000197D9F75E9888E893E128EC30E0F901A3
:100DF0003197F1F70197D9F7C85BDF4F0FB6F89439
:100E0000DEBF0FBECDBFCF91DF911F910F91FF903D
:100E1000EF90DF90CF90BF90AF909F908F907F909A
:100E20006F905F904F903F902F900895CF93DF93F6
:100E3000C2EFD2E0E2E6F2E080E090E0A0E0B0E0D5
:100E400089939993A993B99380839183A283B38360
:100E500084839583A683B78380879187A287B3878E
:100E600084879587A687B787808B918BA28BB38B5E
:100E7000848B958BA68BB78B789623E0CA30D207EC
:100E8000F9F6DF91CF9108952F923F924F925F92A2
:100E90006F927F928F929F92AF92BF92CF92DF928A
:100EA000EF92FF920F931F93DF93CF93CDB7DEB7EF
:100EB0006E970FB6F894DEBF0FBECDBF182F092F67
:100EC00060911D0170911E01882777FD8095982FF4
:100ED0000E94CE101B012C01B4E26B2EB3E07B2EDE
:100EE000212F302FC9019A8F898F4E010894811CC0
:100EF000911C80E090E0A0E8BFE38B8F9C8FAD8FCA
:100F0000BE8FD3011C96ED90FD900D911C911F9703
:100F1000E98DFA8D61917191FA8FE98F80E090E00F
:100F20000E948011A20191010E94620FD3012D91B4
:100F30003D914D915D913D010E940A0E5B016C0156
:100F4000C801B701A80197010E94680EA60195018A
:100F50000E94680EA60195010E94680E9B01AC01DB
:100F60006B8D7C8D8D8D9E8D0E940A0E6B8F7C8F7C
:100F70008D8F9E8FC801B701A80197010E943B0E7B
:100F8000A80197010E94680EA60195010E94680EB3
:100F9000F4016083718382839383C801B70120E0E9
:100FA00030E040E050EC0E94680EA60195010E94DE
:100FB000680EA60195010E94680ED4011C966D93DF
:100FC0007D938D939C931F97E4E0F0E08E0E9F1E1F
:100FD000F0E36F16F3E07F0609F093CFA2EFAA2E9D
:100FE000A2E0BA2E2E010894411C511CCC24DD2411
:100FF000F9E12F2E312C2C0E3D1ED2016D907D90EB
:101000008D909C90C401B3012B8D3C8D4D8D5E8DD8
:101010000E94680E9B01AC01F501608171818281A3
:1010200093810E943B0ED5016D937D938D939C938C
:1010300013978601000F111F0C0D1D1D73E0000F8B
:10104000111F7A95E1F70E591D4F7E010894E11C9E
:10105000F11CC401B301F7012191319141915191EA
:101060007F010E94680E9B01AC01D8016D917D91BA
:101070008D919C910E943B0EF80161937193819335
:1010800091938F01E214F30421F70894C11CD11C41
:1010900084E090E0A80EB91E480E591E96E0C916CD
:1010A000D10409F0AACF6E960FB6F894DEBF0FBE3A
:1010B000CDBFCF91DF911F910F91FF90EF90DF9007
:1010C000CF90BF90AF909F908F907F906F905F90E8
:1010D0004F903F902F900895EF92FF920F931F93A0
:1010E000CF93DF930E941607809152029091530292
:1010F000E0905402F09055028E159F050CF47C018F
:1011000000E010E0C0E0D0E00BC080910A039091B5
:101110000B038C0F9D1F0E9444070F5F1F4F2696E5
:101120000E151F0594F3DF91CF911F910F91FF9042
:10113000EF9008952F923F924F925F926F927F921D
:101140008F929F92AF92BF92CF92DF92EF92FF92D7
:101150000F931F93DF93CF93CDB7DEB72A970FB6C8
:10116000F894DEBF0FBECDBF82E692E09A838983FA
:10117000442455241C821B8212010894211C311C1A
:101180007201EE0CFF1CE40CF51CEE0CFF1CE20CD3
:10119000F31CEE0CFF1CEE0CFF1CA2E6B2E0EA0E04
:1011A000FB1EEB81FC81EA50FD4FFE83ED83310194
:1011B000660C771C660C771C82EF92E0680E791E35
:1011C0004101AB81BC81A80FB91FB887AF837EC036
:1011D000F7016081718182819381A981BA812D910A
:1011E0003D914D915C910E94620F5B016C0120E08A
:1011F00030E040E050E00E940E10882309F458C00F
:10120000C601B501EF81F88520813181428153818A
:101210000E94680E9B01AC01D3016D917D918D916F
:101220009C910E940A0EF3016083718382839383F1
:101230008CE190E0889E8001899E100D989E100D93
:1012400011240E591D4FD401AA0FBB1FA80DB91DA3
:10125000AA0FBB1FA40DB51DAA0FBB1FAA0FBB1F52
:10126000AE59BD4FBA87A987C601B501E985FA8590
:1012700020813181428153810E94680E9B01AC0123
:10128000D8016D917D918D919C910E940A0EF8017B
:101290006083718382839383085E1F4F89859A855B
:1012A00048969A878987AD81BE810A171B07E1F6A8
:1012B0000894811C911CE4E0F0E0EE0EFF1E8D818D
:1012C0009E8104969E838D836E0E7F1E96E0891606
:1012D00091040CF47DCFAB81BC811496BC83AB83AD
:1012E000E981FA817C96FA83E9832101F6E02F16E1
:1012F000310409F041CF36E0A32E33E0B32E2EEEB9
:10130000822E22E0922E95E0C92ED12C0F2EF0E0F5
:101310004F2EF0E05F2EF0E06F2EF0E07F2EF02DEC
:10132000D5016D917D918D919C91F4012081318148
:10133000428153810E94620FD5016D937D938D93FD
:101340009C93139780E090E0A0E8BFE3F4018083D2
:101350009183A283B3831601220C331C2C0C3D1CF9
:1013600003E0220C331C0A95E1F782E692E0280E96
:10137000391E12EFE12E12E0F12E00E010E023C042
:10138000D1016D917D918D919C91F50120813181EB
:10139000428153810E94680E9B01AC01D7016D917F
:1013A0007D918D919C910E940A0EF701619371933A
:1013B000819391937F01D1014D925D926D927D92C7
:1013C0001D010F5F1F4F0C151D05D4F20894C108B5
:1013D000D108ECEFFFEFAE0EBF1E84EE9FEF880E3C
:1013E000991E9FEFC9169FEFD90609F099CF8091FA
:1013F000F2029091F302A091F402B091F502809371
:101400000C0390930D03A0930E03B0930F038091F0
:10141000F6029091F702A091F802B091F902809340
:10142000100390931103A0931203B09313038091C0
:10143000FA029091FB02A091FC02B091FD02809310
:10144000140390931503A0931603B0931703809190
:10145000FE029091FF02A0910003B09101038093DE
:10146000180390931903A0931A03B0931B03809160
:10147000020390910303A0910403B09105038093AC
:101480001C0390931D03A0931E03B0931F03809130
:10149000060390910703A0910803B091090380937C
:1014A000200390932103A0932203B09323032A9651
:1014B0000FB6F894DEBF0FBECDBFCF91DF911F9165
:1014C0000F91FF90EF90DF90CF90BF90AF909F90E3
:1014D0008F907F906F905F904F903F902F900895E6
:1014E0002F923F924F925F926F927F928F929F9234
:1014F000AF92BF92CF92DF92EF92FF920F931F9322
:10150000DF93CF93CDB7DEB76A970FB6F894DEBFFF
:101510000FBECDBFB4E12B2E312C0F2EF0E0EF2EFD
:10152000F0E0FF2EF8EC0F2FF2E41F2FF02D0DC18D
:101530000E946C080E949A08C0900C03D0900D0382
:10154000E0900E03F0900F03809010039090110331
:10155000A0901203B0901303409014035090150311
:1015600060901603709017038091180390911903EF
:10157000A0911A03B0911B038D8B9E8BAF8BB88FFC
:101580008091300390913103A0913203B0913303E5
:10159000898B9A8BAB8BBC8B80911C0390911D0324
:1015A000A0911E03B0911F038D879E87AF87B88BD4
:1015B0008091340390913503A0913603B0913703A5
:1015C00089879A87AB87BC878091200390912103FC
:1015D000A0912203B09123038D839E83AF83B887AC
:1015E0008091380390913903A0913A03B0913B0365
:1015F00089839A83AB83BC83A4E2B3E0BA8FA98FBB
:101600000CE013E0E98DFA8D608171818281938114
:10161000D8012D913D914D915D918D010E940A0E51
:10162000E98DFA8D6193719381939193FA8FE98F8C
:10163000EC53F34039F7C701B601A70196010E94A8
:10164000680E9B01AC010E943B0E7B018C01C50121
:10165000B401A50194010E94680E9B01AC01C80170
:10166000B7010E943B0E7B018C01C301B201A301B3
:1016700092010E94680E9B01AC01C801B7010E9453
:101680003B0E5B016C016D897E898F89988D9B0172
:10169000AC010E94680E7B018C0169897A898B8973
:1016A0009C899B01AC010E94680E9B01AC01C801A2
:1016B000B7010E94620F9B01AC01C601B5010E94F7
:1016C0003B0E5B016C016D857E858F8598899B0142
:1016D000AC010E94680E7B018C0169857A858B853F
:1016E0009C859B01AC010E94680E9B01AC01C80166
:1016F000B7010E94620F9B01AC01C601B5010E94B7
:101700003B0E5B016C016D817E818F8198859B0111
:10171000AC010E94680E7B018C0169817A818B810A
:101720009C819B01AC010E94680E9B01AC01C80129
:10173000B7010E94620F9B01AC01C601B5010E9476
:101740003B0E7B018C010E9416070894210831088A
:101750008FEF28168FEF380659F0C801B7012FE533
:1017600030E749E850E30E943E1018160CF4E0CE32
:101770006A960FB6F894DEBF0FBECDBFCF91DF9152
:101780001F910F91FF90EF90DF90CF90BF90AF909F
:101790009F908F907F906F905F904F903F902F9091
:1017A0000895CF93DF93C8ECD0E037C040E050E01D
:1017B0005D9A28E833E1FE013197F1F7215030407E
:1017C000D1F75D9828E833E1FE013197F1F7215018
:1017D0003040D1F74F5F5F4F4430510549F760917A
:1017E0005202709153020E940D149C01220F331F6C
:1017F000280F391F220F331F80910A0390910B038A
:10180000820F931F0E9427048091540290915502E9
:1018100001969093550280935402809154029091C6
:101820005502863091050CF4C1CF0E94700ADF91F9
:10183000CF91089580917A00866880937A0084E140
:1018400090E0909353028093520288E790E00E94C8
:101850006B1480930A0390930B030E94160780E099
:1018600090E0A0E0B4E480932C0390932D03A09328
:101870002E03B0932F038093280390932903A09302
:101880002A03B0932B038093240390932503A09302
:101890002603B093270383EE95EAABE1BCE3809384
:1018A000380390933903A0933A03B0933B0380939A
:1018B000340390933503A0933603B093370380939A
:1018C000300390933103A0933203B09333035E9AB5
:1018D00080ED97E028EC30E0F9013197F1F70197BE
:1018E000D9F75E985D9A80ED97E028EC30E0F90139
:1018F0003197F1F70197D9F75D982B9A80ED97E032
:1019000028EC30E0F9013197F1F70197D9F72B98DE
:1019100080E197E228EC30E0F9013197F1F7019787
:10192000D9F70895EF92FF920F931F937B018C01DB
:1019300020E030E040E05FE40E946E1088238CF0ED
:10194000C801B70120E030E040E05FE40E940A0EE9
:101950000E942C119B01AC01205030404040504867
:1019600006C0C801B7010E942C119B01AC01B9014E
:10197000CA011F910F91FF90EF900895A0E0B0E091
:10198000E4ECFCE00C943414DC012B01FA019C9192
:10199000923008F439C1EB018881823008F433C1F8
:1019A000943069F4843009F02FC111969C911197FD
:1019B0008981981709F428C1A3E4B1E025C18430D6
:1019C00009F421C18230A9F4923009F01DC19A01B5
:1019D000AD0188E0EA010990AE01E90109929E019A
:1019E0008150C1F7E201898111969C9189238183FD
:1019F00008C1923009F407C112962D903C901397BC
:101A0000EB018A819B811496AD90BD90CD90DC90C6
:101A10001797EC80FD800E811F819101281B390BE7
:101A2000B90137FF04C066277727621B730B60324A
:101A300071050CF061C0121613066CF537014801F0
:101A4000062E04C096948794779467940A94D2F7EC
:101A500021E030E040E050E004C0220F331F441F7B
:101A6000551F6A95D2F721503040404050402E21FA
:101A70003F2140235123211531054105510521F016
:101A800021E030E040E050E079018A01E628F728C3
:101A9000082919293CC0232BD1F1260E371E350108
:101AA0004601062E04C096948794779467940A940E
:101AB000D2F721E030E040E050E004C0220F331FB5
:101AC000441F551F6A95D2F7215030404040504086
:101AD0002A213B214C215D2121153105410551056C
:101AE00021F021E030E040E050E059016A01A628F1
:101AF000B728C828D9280BC0821593052CF01C01E3
:101B0000AA24BB24650103C0EE24FF24870111969B
:101B10009C91D20111968C91981709F445C0992394
:101B200039F0A80197012A193B094C095D0906C043
:101B3000A60195012E193F09400B510B57FD08C016
:101B400011823382228224833583468357831DC0CA
:101B500081E081833382228288279927DC01821BDE
:101B6000930BA40BB50B84839583A683B7830DC019
:101B7000220F331F441F551F248335834683578309
:101B80008281938101979383828324813581468169
:101B90005781DA01C9010197A109B1098F5F9F4FF0
:101BA000AF4FBF4328F30BC0918333822282EA0CEC
:101BB000FB1C0C1D1D1DE482F5820683178383E048
:101BC0008083248135814681578157FF1AC0C9011E
:101BD000AA2797FDA095BA2F81709070A070B07061
:101BE0005695479537952795822B932BA42BB52B8C
:101BF00084839583A683B78382819381019693839F
:101C00008283DF0101C0D201CD01CDB7DEB7E2E1B1
:101C10000C945014A0E2B0E0E0E1FEE00C9440141B
:101C200069837A838B839C832D833E834F8358877C
:101C3000E9E0EE2EF12CEC0EFD1ECE010196B7016F
:101C40000E941D138E010F5E1F4FCE010596B80135
:101C50000E941D138A8991E089278A8BC701B801E8
:101C6000AE01475E5F4F0E94BE0C0E944812A096D4
:101C7000E6E00C945C14A0E2B0E0E1E4FEE00C9439
:101C8000401469837A838B839C832D833E834F83A7
:101C90005887F9E0EF2EF12CEC0EFD1ECE010196D7
:101CA000B7010E941D138E010F5E1F4FCE010596D6
:101CB000B8010E941D13C701B801AE01475E5F4F16
:101CC0000E94BE0C0E944812A096E6E00C945C14A0
:101CD000A0E2B0E0EEE6FEE00C94341469837A836F
:101CE0008B839C832D833E834F835887CE0101963F
:101CF000BE01675F7F4F0E941D13CE010596BE0196
:101D00006F5E7F4F0E941D139985923088F08989FC
:101D10008230C8F0943019F4823051F404C0843019
:101D200029F4923081F483E491E0C6C0923049F402
:101D300020E09A858A89981321E02A87CE010996A6
:101D4000BBC0823049F420E09A858A89981321E04B
:101D50002A8BCE014196B0C02D843E844F84588892
:101D60006D887E888F88988CEE24FF248701AA24B2
:101D7000BB24650140E050E060E070E0E0E0F0E0AE
:101D8000C10181709070892BE9F0E60CF71C081DE9
:101D9000191D9A01AB012A0D3B1D4C1D5D1D80E0F4
:101DA00090E0A0E0B0E0E614F7040805190520F47F
:101DB00081E090E0A0E0B0E0BA01A901480F591F0E
:101DC0006A1F7B1FAA0CBB1CCC1CDD1C97FE08C025
:101DD00081E090E0A0E0B0E0A82AB92ACA2ADB2A74
:101DE0003196E032F10549F0660C771C881C991C8D
:101DF0005694479437942794C3CFFA85EA892B8960
:101E00003C898B859C85280F391F2E5F3F4F17C05B
:101E1000CA0181709070892B61F016950795F7942F
:101E2000E79480E090E0A0E0B0E8E82AF92A0A2BE5
:101E30001B2B76956795579547952F5F3F4F77FDFD
:101E4000E7CF0CC0440F551F661F771F17FD416079
:101E5000EE0CFF1C001F111F21503040403090E05D
:101E6000590790E0690790E4790760F32B8F3C8F66
:101E7000DB01CA018F779070A070B070803491053B
:101E8000A105B10561F447FD0AC0E114F1040105A3
:101E9000110529F0405C5F4F6F4F7F4F40781A8EDD
:101EA000FE1711F081E08A8F4D8F5E8F6F8F78A3C0
:101EB00083E0898FCE0149960E944812A096E2E104
:101EC0000C945014A8E1B0E0E8E6FFE00C943C1458
:101ED00069837A838B839C832D833E834F835887CA
:101EE000B9E0EB2EF12CEC0EFD1ECE010196B701F0
:101EF0000E941D138E010F5E1F4FCE010596B80183
:101F00000E941D132985223008F47EC039893230A1
:101F100010F4B8017CC08A859A8989278A87243081
:101F200011F0223031F4231709F06EC063E471E040
:101F30006EC0343039F41D861E861F86188A1C86B2
:101F40001B8604C0323021F484E08987B7015FC06A
:101F50002B853C858B899C89281B390B3C872B87DB
:101F6000ED84FE840F851889AD88BE88CF88D88C13
:101F7000EA14FB040C051D0540F4EE0CFF1C001FC9
:101F8000111F215030403C872B8720E030E040E09B
:101F900050E080E090E0A0E0B0E460E070E0EA149F
:101FA000FB040C051D0540F0282B392B4A2B5B2B1D
:101FB000EA18FB080C091D09B695A7959795879512
:101FC000EE0CFF1C001F111F6F5F7F4F6F317105FB
:101FD00031F7DA01C9018F779070A070B07080344A
:101FE0009105A105B10561F427FD0AC0E114F104D2
:101FF0000105110529F0205C3F4F4F4F5F4F2078BE
:102000002D873E874F87588BBE01675F7F4FCB017F
:102010000E9448126896EAE00C945814A8E1B0E0D7
:10202000E4E1F0E10C94401469837A838B839C8310
:102030002D833E834F83588789E0E82EF12CEC0EE8
:10204000FD1ECE010196B7010E941D138E010F5E89
:102050001F4FCE010596B8010E941D13898582305D
:1020600040F08989823028F0C701B8010E94951399
:1020700001C081E06896E6E00C945C14A8E1B0E051
:10208000E4E4F0E10C94401469837A838B839C83AD
:102090002D833E834F83588789E0E82EF12CEC0E88
:1020A000FD1ECE010196B7010E941D138E010F5E29
:1020B0001F4FCE010596B8010E941D1389858230FD
:1020C00040F08989823028F0C701B8010E94951339
:1020D00001C08FEF6896E6E00C945C14A8E1B0E0D4
:1020E000E4E7F0E10C94401469837A838B839C834A
:1020F0002D833E834F83588789E0E82EF12CEC0E28
:10210000FD1ECE010196B7010E941D138E010F5EC8
:102110001F4FCE010596B8010E941D13898582309C
:1021200040F08989823028F0C701B8010E949513D8
:1021300001C08FEF6896E6E00C945C14A8E1B0E073
:10214000E4EAF0E10C94401469837A838B839C83E6
:102150002D833E834F83588789E0E82EF12CEC0EC7
:10216000FD1ECE010196B7010E941D138E010F5E68
:102170001F4FCE010596B8010E941D13898582303C
:1021800040F08989823028F0C701B8010E94951378
:1021900001C081E06896E6E00C945C14A8E0B0E031
:1021A000E4EDF0E10C943D149B01AC0183E08983E4
:1021B000DA01C9018827B7FD83959927AA27BB278C
:1021C000B82E211531054105510519F482E08983A6
:1021D0003AC08823A9F0203080E0380780E0480723
:1021E00080E8580729F460E070E080E09FEC30C0A0
:1021F000EE24FF248701E21AF30A040B150B02C038
:1022000079018A018EE1C82ED12CDC82CB82ED824D
:10221000FE820F831887C801B7010E94F911019748
:102220001816190684F4082E04C0EE0CFF1C001FBB
:10223000111F0A94D2F7ED82FE820F831887C81A05
:10224000D90ADC82CB82BA82CE0101960E94481262
:102250002896E9E00C945914ACE0B0E0E2E3F1E137
:102260000C94441469837A838B839C83CE010196FA
:10227000BE016B5F7F4F0E941D138D81823061F123
:10228000823050F1843021F48E81882351F12EC0A8
:102290002F81388537FD20C06E812F3131051CF02C
:1022A0006623F9F023C08EE190E0821B930B298511
:1022B0003A854B855C8504C056954795379527959B
:1022C0008A95D2F76623B1F05095409530952195C7
:1022D0003F4F4F4F5F4F0EC020E030E040E050E0F6
:1022E00009C02FEF3FEF4FEF5FE704C020E030E081
:1022F00040E050E8B901CA012C96E2E00C94601469
:10230000A8E0B0E0E6E8F1E10C943C147B018C011C
:10231000611571058105910519F482E0898360C01A
:1023200083E089838EE1C82ED12CDC82CB82ED82C2
:10233000FE820F831887C801B7010E94F911FC01C2
:102340003197F7FF3BC0222733272E1B3F0B570146
:102350006801022E04C0D694C794B794A7940A9437
:10236000D2F740E050E060E070E081E090E0A0E073
:10237000B0E004C0880F991FAA1FBB1F2A95D2F78F
:102380000197A109B1098E219F21A023B1230097B4
:10239000A105B10521F041E050E060E070E04A297C
:1023A0005B296C297D294D835E836F8378878EE15D
:1023B00090E08E1B9F0B9C838B8312C0309781F023
:1023C0000E2E04C0EE0CFF1C001F111F0A94D2F742
:1023D000ED82FE820F831887CE1ADF0ADC82CB8261
:1023E0001A82CE0101960E9448122896EAE00C94C7
:1023F0005814EF92FF920F931F937B018C0180E0A2
:10240000E81680E0F80681E0080780E0180788F405
:102410008FEFE816F1040105110531F028F088E08E
:1024200090E0A0E0B0E017C080E090E0A0E0B0E075
:1024300012C080E0E81680E0F80680E0080781E03E
:10244000180728F088E190E0A0E0B0E004C080E147
:1024500090E0A0E0B0E020E230E040E050E0281B57
:10246000390B4A0B5B0B04C016950795F794E7945C
:102470008A95D2F7F701E55BFE4F8081281B310971
:1024800041095109C9011F910F91FF90EF900895E3
:10249000DF92EF92FF920F931F93FC01E480F5808F
:1024A00006811781D1808081823048F480E090E0FD
:1024B000A0E1B0E0E82AF92A0A2B1B2BA5C0843042
:1024C00009F49FC0823021F4EE24FF24870105C067
:1024D000E114F1040105110519F4E0E0F0E096C003
:1024E000628173819FEF623879070CF05BC022E84C
:1024F0003FEF261B370B2A3131052CF020E030E06E
:1025000040E050E02AC0B801A701022E04C0769531
:102510006795579547950A94D2F781E090E0A0E03F
:10252000B0E004C0880F991FAA1FBB1F2A95D2F7DD
:102530000197A109B1098E219F21A023B123009702
:10254000A105B10521F081E090E0A0E0B0E09A01A2
:10255000AB01282B392B4A2B5B2BDA01C9018F7772
:102560009070A070B07080349105A105B10539F468
:1025700027FF09C0205C3F4F4F4F5F4F04C0215CD5
:102580003F4F4F4F5F4FE0E0F0E02030A0E03A07D0
:10259000A0E04A07A0E45A0710F0E1E0F0E079017A
:1025A0008A0127C06038710564F5FB01E158FF4FCF
:1025B000D801C7018F779070A070B07080349105FA
:1025C000A105B10539F4E7FE0DC080E490E0A0E07C
:1025D000B0E004C08FE390E0A0E0B0E0E80EF91EA8
:1025E0000A1F1B1F17FF05C016950795F794E79460
:1025F000319687E016950795F794E7948A95D1F779
:1026000005C0EE24FF248701EFEFF0E06E2F679501
:1026100066276795902F9F77D794DD24D7948E2FC8
:102620008695492F462B582F5D29B701CA011F9166
:102630000F91FF90EF90DF900895FC01DB01408146
:1026400051812281622F6F7770E0221F2227221F83
:102650009381892F880F822B282F30E0991F99278B
:10266000991F11969C93119721153105A9F54115D4
:1026700051056105710511F482E037C082E89FEFD2
:1026800013969C938E9312979A01AB0167E0220FE9
:10269000331F441F551F6A95D1F783E08C930DC0FB
:1026A000220F331F441F551F12968D919C91139733
:1026B000019713969C938E931297203080E03807F1
:1026C00080E0480780E4580758F314962D933D9313
:1026D0004D935C93179708952F3F310579F4411579
:1026E00051056105710519F484E08C93089564FF28
:1026F00003C081E08C9312C01C9210C02F57304051
:1027000013963C932E93129783E08C9387E0440FAB
:10271000551F661F771F8A95D1F7706414964D93E5
:102720005D936D937C93179708951F93DC01FB01D4
:102730009C91923008F447C08081823008F443C0F5
:10274000943051F411961C91843099F58181682F51
:1027500070E0611B71093FC0843021F0923031F488
:102760008230B9F18181882389F12DC011961C91A5
:1027700011978230F1F081811817D9F412962D91BA
:102780003C911397828193818217930794F02817C5
:102790003907BCF014968D919D910D90BC91A02DA0
:1027A0002481358146815781281739074A075B07FD
:1027B00018F4112341F00AC082179307A407B50744
:1027C00040F4112319F061E070E005C06FEF7FEF76
:1027D00002C060E070E0CB011F910895629FD001BC
:1027E000739FF001829FE00DF11D649FE00DF11DCC
:1027F000929FF00D839FF00D749FF00D659FF00D7B
:102800009927729FB00DE11DF91F639FB00DE11D67
:10281000F91FBD01CF011124089597FB092E07264A
:102820000AD077FD04D00CD006D000201AF47095A1
:1028300061957F4F0895F6F7909581959F4F089584
:10284000AA1BBB1B51E107C0AA1FBB1FA617B707D6
:1028500010F0A61BB70B881F991F5A95A9F78095F2
:102860009095BC01CD0108952F923F924F925F92B7
:102870006F927F928F929F92AF92BF92CF92DF9290
:10288000EF92FF920F931F93CF93DF93CDB7DEB7F5
:10289000CA1BDB0B0FB6F894DEBF0FBECDBF099489
:1028A0002A88398848885F846E847D848C849B84E0
:1028B000AA84B984C884DF80EE80FD800C811B81EE
:1028C000AA81B981CE0FD11D0FB6F894DEBF0FBE1D
:1028D000CDBFED010895CF93DF93BC018230910508
:1028E00010F462E070E0A0913E03B0913F03ED016F
:1028F000E0E0F0E040E050E021C088819981861757
:10290000970769F48A819B81309719F093838283BA
:1029100004C090933F0380933E03FE0134C06817C8
:10292000790738F44115510519F08417950708F413
:10293000AC01FE018A819B819C01E9012097E9F6A7
:1029400041155105A9F1CA01861B970B049708F49C
:10295000BA01E0E0F0E02AC08D919C9111978417B4
:102960009507F9F46417750781F412968D919C917F
:102970001397309719F09383828304C090933F0399
:1029800080933E03FD0132964FC0CA01861B970B10
:10299000FD01E80FF91F6193719302978D939C934A
:1029A00043C0FD01828193819C01D9011097A1F65A
:1029B00080913C0390913D03892B41F480914D021D
:1029C00090914E0290933D0380933C0340914F02BF
:1029D000509150024115510541F44DB75EB78091B9
:1029E0004B0290914C02481B590B20913C033091B3
:1029F0003D0324173507B0F4CA01821B930B8617D9
:102A0000970780F0AB014E5F5F4F8417950750F03A
:102A1000420F531F50933D0340933C03F9016193D0
:102A2000719302C0E0E0F0E0CF01DF91CF91089513
:102A3000CF93DF93009709F450C0EC0122971B82DB
:102A40001A82A0913E03B0913F03109709F140E034
:102A500050E0AC17BD0708F1BB83AA83FE012191AA
:102A60003191E20FF31FAE17BF0779F48D919C915E
:102A70001197280F391F2E5F3F4F398328831296F5
:102A80008D919C9113979B838A834115510571F415
:102A9000D0933F03C0933E0320C012968D919C912A
:102AA0001397AD01009711F0DC01D3CFFA01D38366
:102AB000C28321913191E20FF31FCE17DF0769F432
:102AC00088819981280F391F2E5F3F4FFA0131838A
:102AD00020838A819B8193838283DF91CF910895A4
:102AE000F999FECF92BD81BDF89A992780B50895D6
:102AF000A6E1B0E044E050E00C949B15262FF99934
:102B0000FECF1FBA92BD81BD20BD0FB6F894FA9AD0
:102B1000F99A0FBE01960895242F0E947F15252F44
:102B20000E947F150C9494150E947E15272F0C94FB
:102B30007F15DC01CB01FC01F999FECF06C0F2BD87
:102B4000E1BDF89A319600B40D9241505040B8F76B
:062B50000895F894FFCF88
:102B5600AFF6C74315A41F443E62014459D21B3C3D
:102B6600F3881B3C9BE61D3C06000001022000008A
:102B7600000000000000000000000000000000004F
:102B8600000000000000000000000000000000003F
:102B96000000000000000000000000000102020327
:102BA60003030304040404040404040505050505DD
:102BB60005050505050505050505050606060606BA
:102BC600060606060606060606060606060606069F
:102BD600060606060606060606060607070707078A
:102BE600070707070707070707070707070707076F
:102BF600070707070707070707070707070707075F
:102C0600070707070707070707070707070707074E
:102C16000707070707070707070707080808080839
:102C2600080808080808080808080808080808081E
:102C3600080808080808080808080808080808080E
:102C460008080808080808080808080808080808FE
:102C560008080808080808080808080808080808EE
:102C660008080808080808080808080808080808DE
:102C760008080808080808080808080808080808CE
:102C860008080808080808080808080808080808BE
:102C96000808080808080808080808200040030073
:022CA60000002C
:00000001FF
