:100000000C9434000C9451000C9451000C94510049
:100010000C9451000C9451000C9453000C9451001A
:100020000C9451000C9451000C9451000C9451000C
:100030000C9451000C9451000C9451000C945100FC
:100040000C9451000C9451000C9451000C945100EC
:100050000C9451000C9451000C9451000C945100DC
:100060000C9451000C94510011241FBECFEFD8E026
:10007000DEBFCDBF12E0A0E0B1E0ECECF8E202C0E0
:1000800005900D92A235B107D9F713E0A2E5B2E0D1
:1000900001C01D92A433B107E1F70E94A7010C949F
:1000A00064140C9400001F920F920FB60F9211244B
:1000B000CF92DF92EF92FF920F931F932F933F9374
:1000C0004F935F936F937F938F939F93AF93BF9360
:1000D000CF93DF93EF93FF9380917C008C7F80938D
:1000E0007C0080917A00806480937A0080917A000D
:1000F00086FDFCCF609178007091790080917C0042
:100100008C7F816080937C0080917A0080648093F2
:100110007A0080917A0086FDFCCFC0917800D09162
:10012000790080917C008C7F826080937C0080913C
:100130007A00806480937A0080917A0086FDFCCFFB
:10014000C0907800D090790080E090E00E943B1051
:100150002091000130910101409102015091030171
:100160000E94C50C20910C0130910D0140910E01AF
:1001700050910F010E94230D7B018C0120E030E0A3
:1001800040E85FE30E94F90E18165CF40F2EF0E0D1
:10019000EF2EF0E0FF2EF0E80F2FFFE31F2FF02DE2
:1001A00014C0C801B70120E030E040E85FEB0E94D6
:1001B000590F882354F40F2EF0E0EF2EF0E0FF2EBD
:1001C000F0E80F2FFFEB1F2FF02DC801B7019F772D
:1001D00020E030E04FE753E40E94230D0E944D0BD6
:1001E00067BDBE0180E090E00E943B1020910401B9
:1001F0003091050140910601509107010E94C50C04
:100200002091100130911101409112015091130180
:100210000E94230D7B018C0120E030E040E85FE389
:100220000E94F90E18165CF40F2EF0E0EF2EF0E0AD
:10023000FF2EF0E80F2FFFE31F2FF02D14C0C80191
:10024000B70120E030E040E85FEB0E94590F8823BF
:1002500054F40F2EF0E0EF2EF0E0FF2EF0E80F2F19
:10026000FFEB1F2FF02DC801B7019F7720E030E092
:100270004FE753E40E94230D0E944D0B68BDB60169
:1002800080E090E00E943B1020910801309109012C
:1002900040910A0150910B010E94C50C209114015C
:1002A0003091150140911601509117010E94230DC4
:1002B0007B018C0120E030E040E85FE30E94F90E12
:1002C00018165CF40F2EF0E0EF2EF0E0FF2EF0E8B1
:1002D0000F2FFFE31F2FF02D14C0C801B70120E03E
:1002E00030E040E85FEB0E94590F882354F40F2E52
:1002F000F0E0EF2EF0E0FF2EF0E80F2FFFEB1F2FC6
:10030000F02DC801B7019F7720E030E04FE753E4BC
:100310000E94230D0E944D0B6093B300FF91EF915B
:10032000DF91CF91BF91AF919F918F917F916F910D
:100330005F914F913F912F911F910F91FF90EF90FF
:10034000DF90CF900F900FBE0F901F9018958AB13D
:1003500080668AB9239AF999FECF80E090E00E94E6
:100360002B14813019F08F3F09F066C00E94D50A26
:100370000E948C0A409118035091190360911A034E
:1003800070911B0381E090E00E94471440911C0390
:1003900050911D0360911E0370911F0385E090E052
:1003A0000E94471440912003509121036091220341
:1003B0007091230389E090E00E9447144091240348
:1003C0005091250360912603709127038DE090E002
:1003D0000E944714409128035091290360912A03F9
:1003E00070912B0381E190E00E94471440912C030F
:1003F00050912D0360912E0370912F0385E190E0C1
:100400000E944714F999FECF80E090E060E00E94DE
:10041000391428EC30E05D9A80ED97E0F9013197CE
:10042000F1F70197D9F75D9880ED97E0F9013197E1
:10043000F1F70197D9F7EFCF84EF91E028EC30E0A6
:10044000F9013197F1F70197D9F7F999FECF80E0DB
:1004500090E061E00E9439148BB180668BB92B9AD1
:1004600080E197E228EC30E0F9013197F1F701974C
:10047000D9F7F999FECF80E090E060E00E9439144E
:100480008BB18F798BB92B9880E197E228EC30E023
:10049000F9013197F1F70197D9F7F999FECF81E08A
:1004A00090E00E94331460930001709301018093E7
:1004B000020190930301F999FECF85E090E00E943C
:1004C00033146093040170930501809306019093A7
:1004D0000701F999FECF89E090E00E943314609300
:1004E00008017093090180930A0190930B01F99917
:1004F000FECF8DE090E00E94331460930C01709366
:100500000D0180930E0190930F01F999FECF81E1C7
:1005100090E00E9433146093100170931101809356
:10052000120190931301F999FECF85E190E00E94AA
:100530003314609314017093150180931601909306
:100540001701809164008E688093640080B7806892
:1005500080BF209A83EA84BD92E095BD83E88093B2
:10056000B0009093B10080917A00866080937A0009
:1005700080917E008F6380937E0080917A008068F6
:1005800080937A008091600080648093600078940A
:1005900081E083BF8895FDCF90917C008F70907F24
:1005A000892B80937C0080917A00806480937A000C
:1005B00080917A0086FDFCCF2091780030917900FF
:1005C000C90108952F923F924F925F926F927F924E
:1005D0008F929F92AF92BF92CF92DF92EF92FF9253
:1005E0000F931F93DF93CF93CDB7DEB7C854D0409E
:1005F0000FB6F894DEBF0FBECDBF25969FAF8EAF6E
:100600002597049627969FAF8EAF279725962EADF8
:100610003FAD25972E5F3F4F29963FAF2EAF2997CD
:10062000DE011196E7E3F1E08CE001900D9281503C
:10063000E1F7DE011D96EBE2F1E08CE001900D9216
:100640008150E1F7DE015996EFE1F1E08CE0019095
:100650000D928150E1F78D899E89AF89B88D8FAB5E
:1006600098AFA9AFBAAF29893A894B895C892BAB7E
:100670003CAB4DAB5EAB2D843E844F84588889855E
:100680009A85AB85BC858FA798ABA9ABBAAB2D81FA
:100690003E814F8158852BA73CA74DA75EA7898136
:1006A0009A81AB81BC818FA398A7A9A7BAA71EA2E4
:1006B0001DA280E00E94CC027C0100E010E080EDF1
:1006C00097E00197F1F781E00E94CC025C01CC2415
:1006D000DD2480ED97E00197F1F782E00E94CC02E3
:1006E0003C018824992480EA9CE80197F1F72FA126
:1006F00038A549A55AA52E0D3F1D401F511F2FA3F8
:1007000038A749A75AA78BA59CA5ADA5BEA58A0D5C
:100710009B1DAC1DBD1D8BA79CA7ADA7BEA72FA57C
:1007200038A949A95AA9260D371D481D591D2FA7BB
:1007300038AB49AB5AABC801B701A80197010E9479
:10074000A912260E371E481E591EC601B501A60164
:1007500095010E94A9122BA93CA94DA95EA9260FBB
:10076000371F481F591F2BAB3CAB4DAB5EABC401D1
:10077000B301A40193010E94A9122FA938AD49AD7C
:100780005AAD260F371F481F591F2FAB38AF49AF3F
:100790005AAF4DA15EA14F5F5F4F5EA34DA34032A4
:1007A000510509F086CF8FA998ADA9ADBAAD8D8B53
:1007B0009E8BAF8BB88F2BA93CA94DA95EA9298B25
:1007C0003A8B4B8B5C8B2D863E864F86588A3FA595
:1007D000398748A94A8759A95B878AA98C879BA52D
:1007E0009D83ACA5AE83BDA5BF83EEA5E887FFA121
:1007F000F98328A52A8339A53B834AA54C83AA24DB
:10080000BB24E1E0F0E0EC0FFD1FEA0DFB1D2081B1
:1008100031814281538169E1C62ED12CCC0EDD1E7F
:10082000CA0CDB1CEDE0F0E0EC0FFD1FEA0DFB1D38
:10083000E080F180028113810894E11CF11C011D0C
:10084000111DCA01B9010E94A91255E0969587951C
:10085000779567955A95D1F7E61AF70A080B190BA1
:10086000D601ED92FD920D931C931397E4E0F0E016
:10087000AE0EBF1EFCE0AF16B10419F62996AEAD60
:10088000BFAD29971D921C922796EEADFFAD27971D
:10089000118210822596AEADBFAD25971D921C9298
:1008A000898D9A8DAB8DBC8D5C016D0143E0AA0CE6
:1008B000BB1CCC1CDD1C4A95D1F7A80EB91ECA1E64
:1008C000DB1E8D8D9E8DAF8DB8A17C018D0133E037
:1008D000EE0CFF1C001F111F3A95D1F7E80EF91E10
:1008E0000A1F1B1F89A19AA1ABA1BCA11C012D014C
:1008F00023E0220C331C441C551C2A95D1F7280EEA
:10090000391E4A1E5B1E882499241CAE1BAE662429
:100910007724F5C080E00E94CC0223969FAF8EAF73
:10092000239780ED97E00197F1F781E00E94CC02D8
:1009300021969FAF8EAF219780ED97E00197F1F759
:1009400082E00E94CC029EAF8DAF80EA9CE80197C6
:10095000F1F72396EEADFFAD23979F0140E050E005
:10096000B5E0220F331F441F551FBA95D1F78FA151
:1009700098A5A9A5BAA5281B390B4A0B5B0BCA0180
:10098000B9010E94A912A5E096958795779567957C
:10099000AA95D1F76A157B058C059D0508F07EC0E8
:1009A0002196AEADBFAD21979D0140E050E0F5E04E
:1009B000220F331F441F551FFA95D1F78BA59CA515
:1009C000ADA5BEA5281B390B4A0B5B0BCA01B901AB
:1009D0000E94A912E5E09695879577956795EA9527
:1009E000D1F76E157F058007910708F057C0ADADB0
:1009F000BEAD9D0140E050E065E0220F331F441F73
:100A0000551F6A95D1F78FA598A9A9A9BAA9281B3E
:100A1000390B4A0B5B0BCA01B9010E94A91225E0F0
:100A200096958795779567952A95D1F76215730501
:100A30008405950598F5ABADBCAD1196BCAFABAFD9
:100A40002596EEADFFAD25978081918123962EAD41
:100A50003FAD2397820F931F918380832996AEAD7C
:100A6000BFAD29978D919C9111972196EEADFFAD69
:100A700021978E0F9F1F8D939C932796AEADBFAD90
:100A800027978D919C911197EDADFEAD8E0F9F1F15
:100A90008D939C930894811C911C03C00894611C45
:100AA000711C2BAD3CAD2615370548F53BE0831690
:100AB00091042CF15E9A88EE93E0E8ECF0E0319737
:100AC000F1F70197D1F75E9888EE93E0E8ECF0E05B
:100AD0003197F1F70197D1F75E9A88EE93E0E8EC51
:100AE000F0E03197F1F70197D1F75E9888EE93E047
:100AF000E8ECF0E03197F1F70197D1F708C0809169
:100B00001D0190911E01881699060CF403CF809167
:100B10001D0190911E018816990609F081CD5D9AFC
:100B200080ED97E028EC30E0F9013197F1F701977B
:100B3000D9F75D9880ED97E028EC30E0F901319726
:100B4000F1F70197D9F75D9A80ED97E028EC30E056
:100B5000F9013197F1F70197D9F75D9888E893E1AA
:100B600028EC30E0F9013197F1F70197D9F7C85B2C
:100B7000DF4F0FB6F894DEBF0FBECDBFCF91DF9130
:100B80001F910F91FF90EF90DF90CF90BF90AF90AB
:100B90009F908F907F906F905F904F903F902F909D
:100BA0000895CF93DF93C6EED2E0E6E5F2E080E071
:100BB00090E0A0E0B0E089939993A993B9938083E2
:100BC0009183A283B38384839583A683B78380872D
:100BD0009187A287B38784879587A687B787808BFD
:100BE000918BA28BB38B848B958BA68BB78B7896CE
:100BF00022E0CE3FD207F9F6DF91CF9108952F92F0
:100C00003F924F925F926F927F928F929F92AF929C
:100C1000BF92CF92DF92EF92FF920F931F93DF93D9
:100C2000CF93CDB7DEB76E970FB6F894DEBF0FBE89
:100C3000CDBF182F092F60911D0170911E018827CB
:100C400077FD8095982F0E94890F1B012C01B8E138
:100C50006B2EB3E07B2E212F302FC9019A8F898F05
:100C60004E010894811C911C80E090E0A0E8BFE355
:100C70008B8F9C8FAD8FBE8FD3011C96ED90FD9016
:100C80000D911C911F97E98DFA8D61917191FA8FE9
:100C9000E98F80E090E00E943B10A20191010E9448
:100CA0001D0ED3012D913D914D915D913D010E940D
:100CB000C50C5B016C01C801B701A80197010E9436
:100CC000230DA60195010E94230DA60195010E9406
:100CD000230D9B01AC016B8D7C8D8D8D9E8D0E94B3
:100CE000C50C6B8F7C8F8D8F9E8FC801B701A801BB
:100CF00097010E94F60CA80197010E94230DA601FE
:100D000095010E94230DF401608371838283938394
:100D1000C801B70120E030E040E050EC0E94230D14
:100D2000A60195010E94230DA60195010E94230DA5
:100D3000D4011C966D937D938D939C931F97E4E053
:100D4000F0E08E0E9F1EF4E26F16F3E07F0609F0CE
:100D500093CFA6EEAA2EA2E0BA2E2E010894411C33
:100D6000511CCC24DD24F9E12F2E312C2C0E3D1EFC
:100D7000D2016D907D908D909C90C401B3012B8D1C
:100D80003C8D4D8D5E8D0E94230D9B01AC01F501C4
:100D900060817181828193810E94F60CD5016D93EF
:100DA0007D938D939C9313978601000F111F0C0D5B
:100DB0001D1D73E0000F111F7A95E1F70A5A1D4FB0
:100DC0007E010894E11CF11CC401B301F7012191DB
:100DD0003191419151917F010E94230D9B01AC0102
:100DE000D8016D917D918D919C910E94F60CF80136
:100DF00061937193819391938F01E214F30421F72E
:100E00000894C11CD11C84E090E0A80EB91E480EC5
:100E1000591E96E0C916D10409F0AACF6E960FB6F6
:100E2000F894DEBF0FBECDBFCF91DF911F910F9120
:100E3000FF90EF90DF90CF90BF90AF909F908F90FA
:100E40007F906F905F904F903F902F900895EF921A
:100E5000FF920F931F93CF93DF930E94D105809150
:100E6000520290915302E0905402F09055028E1578
:100E70009F050CF47C0100E010E0C0E0D0E00BC066
:100E80008091FE029091FF028C0F9D1F0E94FF0532
:100E90000F5F1F4F26960E151F0594F3DF91CF911C
:100EA0001F910F91FF90EF9008952F923F924F92D4
:100EB0005F926F927F928F929F92AF92BF92CF92EA
:100EC000DF92EF92FF920F931F93DF93CF93CDB7F3
:100ED000DEB72A970FB6F894DEBF0FBECDBF86E50A
:100EE00092E09A838983442455241C821B82120138
:100EF0000894211C311C7201EE0CFF1CE40CF51C43
:100F0000EE0CFF1CE20CF31CEE0CFF1CEE0CFF1CA5
:100F1000A6E5B2E0EA0EFB1EEB81FC81E651FD4F37
:100F2000FE83ED833101660C771C660C771C86EE20
:100F300092E0680E791E4101AB81BC81A80FB91FF8
:100F4000B887AF837EC0F701608171818281938110
:100F5000A981BA812D913D914D915C910E941D0E08
:100F60005B016C0120E030E040E050E00E94C90EDF
:100F7000882309F458C0C601B501EF81F8852081A6
:100F80003181428153810E94230D9B01AC01D30129
:100F90006D917D918D919C910E94C50CF3016083B0
:100FA0007183828393838CE190E0889E8001899E87
:100FB000100D989E100D11240A5A1D4FD401AA0F2E
:100FC000BB1FA80DB91DAA0FBB1FA40DB51DAA0FED
:100FD000BB1FAA0FBB1FAA5ABD4FBA87A987C6015C
:100FE000B501E985FA8520813181428153810E94D2
:100FF000230D9B01AC01D8016D917D918D919C9148
:101000000E94C50CF8016083718382839383085E1C
:101010001F4F89859A8548969A878987AD81BE81B9
:101020000A171B07E1F60894811C911CE4E0F0E02C
:10103000EE0EFF1E8D819E8104969E838D836E0E23
:101040007F1E96E0891691040CF47DCFAB81BC81A4
:101050001496BC83AB83E981FA817C96FA83E98399
:101060002101F6E02F16310409F041CF3AEFA32E0B
:1010700032E0B32E22EE822E22E0922E95E0C92E8F
:10108000D12C0F2EF0E04F2EF0E05F2EF0E06F2E0F
:10109000F0E07F2EF02DD5016D917D918D919C9189
:1010A000F40120813181428153810E941D0ED501BE
:1010B0006D937D938D939C93139780E090E0A0E8CF
:1010C000BFE3F40180839183A283B3831601220CD2
:1010D000331C2C0C3D1C03E0220C331C0A95E1F759
:1010E00086E592E0280E391E16EEE12E12E0F12E72
:1010F00000E010E023C0D1016D917D918D919C9114
:10110000F50120813181428153810E94230D9B0191
:10111000AC01D7016D917D918D919C910E94C50C80
:10112000F70161937193819391937F01D1014D9266
:101130005D926D927D921D010F5F1F4F0C151D0575
:10114000D4F20894C108D108ECEFFFEFAE0EBF1E39
:1011500084EE9FEF880E991E9FEFC9169FEFD90668
:1011600009F099CF8091E6029091E702A091E80200
:10117000B091E9028093000390930103A0930203CE
:10118000B09303038091EA029091EB02A091EC02EC
:10119000B091ED028093040390930503A09306039E
:1011A000B09307038091EE029091EF02A091F002BC
:1011B000B091F1028093080390930903A0930A036E
:1011C000B0930B038091F2029091F302A091F4028C
:1011D000B091F50280930C0390930D03A0930E033E
:1011E000B0930F038091F6029091F702A091F8025C
:1011F000B091F9028093100390931103A09312030E
:10120000B09313038091FA029091FB02A091FC022B
:10121000B091FD028093140390931503A0931603DD
:10122000B09317032A960FB6F894DEBF0FBECDBF5A
:10123000CF91DF911F910F91FF90EF90DF90CF90B2
:10124000BF90AF909F908F907F906F905F904F90E6
:101250003F902F9008952F923F924F925F926F92FE
:101260007F928F929F92AF92BF92CF92DF92EF9236
:10127000FF920F931F93DF93CF93CDB7DEB76A979B
:101280000FB6F894DEBF0FBECDBFB4E12B2E312CCC
:101290000F2EF0E0EF2EF0E0FF2EF8EC0F2FF2E42F
:1012A0001F2FF02D0DC10E9427070E945507C090E7
:1012B0000003D0900103E0900203F09003038090BC
:1012C000040390900503A0900603B090070340909C
:1012D00008035090090360900A0370900B038091FB
:1012E0000C0390910D03A0910E03B0910F038D8B11
:1012F0009E8BAF8BB88F8091240390912503A09192
:101300002603B0912703898B9A8BAB8BBC8B809182
:10131000100390911103A0911203B09113038D87D4
:101320009E87AF87B88B8091280390912903A09165
:101330002A03B0912B0389879A87AB87BC8780915A
:10134000140390911503A0911603B09117038D8398
:101350009E83AF83B88780912C0390912D03A09139
:101360002E03B0912F0389839A83AB83BC83A8E1BA
:10137000B3E0BA8FA98F00E013E0E98DFA8D6081A8
:10138000718182819381D8012D913D914D915D9123
:101390008D010E94C50CE98DFA8D61937193819343
:1013A0009193FA8FE98FE053F34039F7C701B60103
:1013B000A70196010E94230D9B01AC010E94F60C2F
:1013C0007B018C01C501B401A50194010E94230D8C
:1013D0009B01AC01C801B7010E94F60C7B018C0196
:1013E000C301B201A30192010E94230D9B01AC0134
:1013F000C801B7010E94F60C5B016C016D897E8902
:101400008F89988D9B01AC010E94230D7B018C017B
:1014100069897A898B899C899B01AC010E94230D83
:101420009B01AC01C801B7010E941D0E9B01AC01DC
:10143000C601B5010E94F60C5B016C016D857E85CD
:101440008F8598899B01AC010E94230D7B018C0143
:1014500069857A858B859C859B01AC010E94230D53
:101460009B01AC01C801B7010E941D0E9B01AC019C
:10147000C601B5010E94F60C5B016C016D817E8195
:101480008F8198859B01AC010E94230D7B018C010B
:1014900069817A818B819C819B01AC010E94230D23
:1014A0009B01AC01C801B7010E941D0E9B01AC015C
:1014B000C601B5010E94F60C7B018C010E94D1058A
:1014C0000894210831088FEF28168FEF380659F05D
:1014D000C801B7012FE530E749E850E30E94F90E53
:1014E00018160CF4E0CE6A960FB6F894DEBF0FBE65
:1014F000CDBFCF91DF911F910F91FF90EF90DF90C3
:10150000CF90BF90AF909F908F907F906F905F90A3
:101510004F903F902F900895CF93DF93C8ECD0E089
:1015200037C040E050E02B9A28E833E1FE013197C4
:10153000F1F721503040D1F72B9828E833E1FE0134
:101540003197F1F721503040D1F74F5F5F4F443072
:10155000510549F760915202709153020E94C812DE
:101560009C01220F331F280F391F220F331F809138
:10157000FE029091FF02820F931F0E94E20280916F
:101580005402909155020196909355028093540213
:101590008091540290915502863091050CF4C1CF90
:1015A0000E942B09DF91CF91089580917A0086687F
:1015B00080937A0084E190E09093530280935202EA
:1015C00088E790E00E9426138093FE029093FF022A
:1015D0000E94D10580E090E0A0E0B4E48093200375
:1015E00090932103A0932203B093230380931C03C1
:1015F00090931D03A0931E03B0931F0380931803C1
:1016000090931903A0931A03B0931B0383EE95EAFA
:10161000ABE1BCE380932C0390932D03A0932E03A6
:10162000B0932F038093280390932903A0932A0358
:10163000B0932B038093240390932503A093260358
:10164000B09327035E9A88EE93E028EC30E0F9012E
:101650003197F1F70197D9F75E985D9A88EE93E09C
:1016600028EC30E0F9013197F1F70197D9F75D984F
:101670002B9A88EE93E028EC30E0F9013197F1F7EE
:101680000197D9F72B9880E197E228EC30E0F90137
:101690003197F1F70197D9F70895EF92FF920F93E1
:1016A0001F937B018C0120E030E040E05FE40E946A
:1016B000290F88238CF0C801B70120E030E040E01A
:1016C0005FE40E94C50C0E94E70F9B01AC01205013
:1016D00030404040504806C0C801B7010E94E70FA3
:1016E0009B01AC01B901CA011F910F91FF90EF90CE
:1016F0000895A0E0B0E0EFE7FBE00C94EF12DC010E
:101700002B01FA019C91923008F439C1EB018881D8
:10171000823008F433C1943069F4843009F02FC169
:1017200011969C9111978981981709F428C1A3E417
:10173000B1E025C1843009F421C18230A9F492308E
:1017400009F01DC19A01AD0188E0EA010990AE01DE
:10175000E90109929E018150C1F7E2018981119648
:101760009C918923818308C1923009F407C11296A4
:101770002D903C901397EB018A819B811496AD903C
:10178000BD90CD90DC901797EC80FD800E811F817D
:101790009101281B390BB90137FF04C06627772751
:1017A000621B730B603271050CF061C012161306D8
:1017B0006CF537014801062E04C0969487947794FF
:1017C00067940A94D2F721E030E040E050E004C092
:1017D000220F331F441F551F6A95D2F72150304006
:1017E000404050402E213F214023512321153105F7
:1017F0004105510521F021E030E040E050E0790161
:101800008A01E628F728082919293CC0232BD1F1A1
:10181000260E371E35014601062E04C09694879485
:10182000779467940A94D2F721E030E040E050E0EA
:1018300004C0220F331F441F551F6A95D2F7215051
:101840003040404050402A213B214C215D21211550
:1018500031054105510521F021E030E040E050E044
:1018600059016A01A628B728C828D9280BC08215B3
:1018700093052CF01C01AA24BB24650103C0EE24AF
:10188000FF24870111969C91D20111968C91981793
:1018900009F445C0992339F0A80197012A193B0999
:1018A0004C095D0906C0A60195012E193F09400BA0
:1018B000510B57FD08C01182338222822483358365
:1018C000468357831DC081E081833382228288272B
:1018D0009927DC01821B930BA40BB50B84839583A2
:1018E000A683B7830DC0220F331F441F551F2483C7
:1018F00035834683578382819381019793838283C3
:101900002481358146815781DA01C9010197A109F6
:10191000B1098F5F9F4FAF4FBF4328F30BC0918337
:1019200033822282EA0CFB1C0C1D1D1DE482F58211
:101930000683178383E08083248135814681578124
:1019400057FF1AC0C901AA2797FDA095BA2F817029
:101950009070A070B0705695479537952795822B5B
:10196000932BA42BB52B84839583A683B783828185
:101970009381019693838283DF0101C0D201CD015F
:10198000CDB7DEB7E2E10C940B13A0E2B0E0EBECD4
:10199000FCE00C94FB1269837A838B839C832D83F8
:1019A0003E834F835887E9E0EE2EF12CEC0EFD1EAE
:1019B000CE010196B7010E94D8118E010F5E1F4F14
:1019C000CE010596B8010E94D8118A8991E0892735
:1019D0008A8BC701B801AE01475E5F4F0E94790B49
:1019E0000E940311A096E6E00C941713A0E2B0E069
:1019F000ECEFFCE00C94FB1269837A838B839C836D
:101A00002D833E834F835887F9E0EF2EF12CEC0EA7
:101A1000FD1ECE010196B7010E94D8118E010F5E06
:101A20001F4FCE010596B8010E94D811C701B80119
:101A3000AE01475E5F4F0E94790B0E940311A09692
:101A4000E6E00C941713A0E2B0E0E9E2FDE00C94AC
:101A5000EF1269837A838B839C832D833E834F832C
:101A60005887CE010196BE01675F7F4F0E94D81153
:101A7000CE010596BE016F5E7F4F0E94D8119985F9
:101A8000923088F089898230C8F0943019F482301D
:101A900051F404C0843029F4923081F483E491E05D
:101AA000C6C0923049F420E09A858A89981321E0D3
:101AB0002A87CE010996BBC0823049F420E09A857E
:101AC0008A89981321E02A8BCE014196B0C02D84DB
:101AD0003E844F8458886D887E888F88988CEE2449
:101AE000FF248701AA24BB24650140E050E060E0A8
:101AF00070E0E0E0F0E0C10181709070892BE9F0C6
:101B0000E60CF71C081D191D9A01AB012A0D3B1D9F
:101B10004C1D5D1D80E090E0A0E0B0E0E614F7040D
:101B20000805190520F481E090E0A0E0B0E0BA01DA
:101B3000A901480F591F6A1F7B1FAA0CBB1CCC1C94
:101B4000DD1C97FE08C081E090E0A0E0B0E0A82A8C
:101B5000B92ACA2ADB2A3196E032F10549F0660C2F
:101B6000771C881C991C5694479437942794C3CFAC
:101B7000FA85EA892B893C898B859C85280F391F3A
:101B80002E5F3F4F17C0CA0181709070892B61F0A2
:101B900016950795F794E79480E090E0A0E0B0E810
:101BA000E82AF92A0A2B1B2B7695679557954795B6
:101BB0002F5F3F4F77FDE7CF0CC0440F551F661FC7
:101BC000771F17FD4160EE0CFF1C001F111F2150F5
:101BD0003040403090E0590790E0690790E4790781
:101BE00060F32B8F3C8FDB01CA018F779070A07060
:101BF000B07080349105A105B10561F447FD0AC0BC
:101C0000E114F1040105110529F0405C5F4F6F4FAD
:101C10007F4F40781A8EFE1711F081E08A8F4D8F2A
:101C20005E8F6F8F78A383E0898FCE0149960E94E3
:101C30000311A096E2E10C940B13A8E1B0E0E3E2FB
:101C4000FEE00C94F71269837A838B839C832D8347
:101C50003E834F835887B9E0EB2EF12CEC0EFD1E2E
:101C6000CE010196B7010E94D8118E010F5E1F4F61
:101C7000CE010596B8010E94D8112985223008F4BA
:101C80007EC03989323010F4B8017CC08A859A89C7
:101C900089278A87243011F0223031F4231709F084
:101CA0006EC063E471E06EC0343039F41D861E8668
:101CB0001F86188A1C861B8604C0323021F484E0FB
:101CC0008987B7015FC02B853C858B899C89281B40
:101CD000390B3C872B87ED84FE840F851889AD88EE
:101CE000BE88CF88D88CEA14FB040C051D0540F48F
:101CF000EE0CFF1C001F111F215030403C872B872A
:101D000020E030E040E050E080E090E0A0E0B0E48F
:101D100060E070E0EA14FB040C051D0540F0282B80
:101D2000392B4A2B5B2BEA18FB080C091D09B695C9
:101D3000A79597958795EE0CFF1C001F111F6F5FED
:101D40007F4F6F31710531F7DA01C9018F779070DC
:101D5000A070B07080349105A105B10561F427FD34
:101D60000AC0E114F1040105110529F0205C3F4F80
:101D70004F4F5F4F20782D873E874F87588BBE018E
:101D8000675F7F4FCB010E9403116896EAE00C94D5
:101D90001313A8E1B0E0EFECFEE00C94FB126983B2
:101DA0007A838B839C832D833E834F83588789E07E
:101DB000E82EF12CEC0EFD1ECE010196B7010E941B
:101DC000D8118E010F5E1F4FCE010596B8010E94FB
:101DD000D8118985823040F08989823028F0C70186
:101DE000B8010E94501201C081E06896E6E00C94B0
:101DF0001713A8E1B0E0EFEFFEE00C94FB1269834B
:101E00007A838B839C832D833E834F83588789E01D
:101E1000E82EF12CEC0EFD1ECE010196B7010E94BA
:101E2000D8118E010F5E1F4FCE010596B8010E949A
:101E3000D8118985823040F08989823028F0C70125
:101E4000B8010E94501201C08FEF6896E6E00C9432
:101E50001713A8E1B0E0EFE2FFE00C94FB126983F6
:101E60007A838B839C832D833E834F83588789E0BD
:101E7000E82EF12CEC0EFD1ECE010196B7010E945A
:101E8000D8118E010F5E1F4FCE010596B8010E943A
:101E9000D8118985823040F08989823028F0C701C5
:101EA000B8010E94501201C08FEF6896E6E00C94D2
:101EB0001713A8E1B0E0EFE5FFE00C94FB12698393
:101EC0007A838B839C832D833E834F83588789E05D
:101ED000E82EF12CEC0EFD1ECE010196B7010E94FA
:101EE000D8118E010F5E1F4FCE010596B8010E94DA
:101EF000D8118985823040F08989823028F0C70165
:101F0000B8010E94501201C081E06896E6E00C948E
:101F10001713A8E0B0E0EFE8FFE00C94F8129B0183
:101F2000AC0183E08983DA01C9018827B7FD839575
:101F30009927AA27BB27B82E211531054105510540
:101F400019F482E089833AC08823A9F0203080E028
:101F5000380780E0480780E8580729F460E070E01F
:101F600080E09FEC30C0EE24FF248701E21AF30AE0
:101F7000040B150B02C079018A018EE1C82ED12C09
:101F8000DC82CB82ED82FE820F831887C801B70105
:101F90000E94B41001971816190684F4082E04C084
:101FA000EE0CFF1C001F111F0A94D2F7ED82FE8277
:101FB0000F831887C81AD90ADC82CB82BA82CE0175
:101FC00001960E9403112896E9E00C941413ACE0EA
:101FD000B0E0EDEEFFE00C94FF1269837A838B830F
:101FE0009C83CE010196BE016B5F7F4F0E94D8118A
:101FF0008D81823061F1823050F1843021F48E8104
:10200000882351F12EC02F81388537FD20C06E8185
:102010002F3131051CF06623F9F023C08EE190E0EA
:10202000821B930B29853A854B855C8504C05695A8
:102030004795379527958A95D2F76623B1F0509545
:102040004095309521953F4F4F4F5F4F0EC020E098
:1020500030E040E050E009C02FEF3FEF4FEF5FE787
:1020600004C020E030E040E050E8B901CA012C96FD
:10207000E2E00C941B13A8E0B0E0E1E4F0E10C9482
:10208000F7127B018C01611571058105910519F429
:1020900082E0898360C083E089838EE1C82ED12CE1
:1020A000DC82CB82ED82FE820F831887C801B701E4
:1020B0000E94B410FC013197F7FF3BC02227332761
:1020C0002E1B3F0B57016801022E04C0D694C79403
:1020D000B794A7940A94D2F740E050E060E070E033
:1020E00081E090E0A0E0B0E004C0880F991FAA1F33
:1020F000BB1F2A95D2F70197A109B1098E219F2113
:10210000A023B1230097A105B10521F041E050E0E3
:1021100060E070E04A295B296C297D294D835E834C
:102120006F8378878EE190E08E1B9F0B9C838B835F
:1021300012C0309781F00E2E04C0EE0CFF1C001F61
:10214000111F0A94D2F7ED82FE820F831887CE1AF0
:10215000DF0ADC82CB821A82CE0101960E94031133
:102160002896EAE00C941313EF92FF920F931F93BB
:102170007B018C0180E0E81680E0F80681E008072A
:1021800080E0180788F48FEFE816F10401051105C7
:1021900031F028F088E090E0A0E0B0E017C080E0E7
:1021A00090E0A0E0B0E012C080E0E81680E0F80621
:1021B00080E0080781E0180728F088E190E0A0E0BF
:1021C000B0E004C080E190E0A0E0B0E020E230E0C8
:1021D00040E050E0281B390B4A0B5B0B04C01695FE
:1021E0000795F794E7948A95D2F7F701E55BFE4FE0
:1021F0008081281B310941095109C9011F910F91A3
:10220000FF90EF900895DF92EF92FF920F931F934C
:10221000FC01E480F58006811781D18080818230C5
:1022200048F480E090E0A0E1B0E0E82AF92A0A2B27
:102230001B2BA5C0843009F49FC0823021F4EE240A
:10224000FF24870105C0E114F1040105110519F40B
:10225000E0E0F0E096C0628173819FEF6238790719
:102260000CF05BC022E83FEF261B370B2A3131050B
:102270002CF020E030E040E050E02AC0B801A70197
:10228000022E04C076956795579547950A94D2F724
:1022900081E090E0A0E0B0E004C0880F991FAA1F81
:1022A000BB1F2A95D2F70197A109B1098E219F2161
:1022B000A023B1230097A105B10521F081E090E0B2
:1022C000A0E0B0E09A01AB01282B392B4A2B5B2B05
:1022D000DA01C9018F779070A070B07080349105D9
:1022E000A105B10539F427FF09C0205C3F4F4F4FCE
:1022F0005F4F04C0215C3F4F4F4F5F4FE0E0F0E085
:102300002030A0E03A07A0E04A07A0E45A0710F006
:10231000E1E0F0E079018A0127C06038710564F5D9
:10232000FB01E158FF4FD801C7018F779070A07073
:10233000B07080349105A105B10539F4E7FE0DC0F8
:1023400080E490E0A0E0B0E004C08FE390E0A0E083
:10235000B0E0E80EF91E0A1F1B1F17FF05C01695F7
:102360000795F794E794319687E016950795F794CB
:10237000E7948A95D1F705C0EE24FF248701EFEF9B
:10238000F0E06E2F679566276795902F9F77D7941B
:10239000DD24D7948E2F8695492F462B582F5D2903
:1023A000B701CA011F910F91FF90EF90DF90089540
:1023B000FC01DB01408151812281622F6F7770E047
:1023C000221F2227221F9381892F880F822B282FDB
:1023D00030E0991F9927991F11969C931197211509
:1023E0003105A9F5411551056105710511F482E02A
:1023F00037C082E89FEF13969C938E9312979A01B1
:10240000AB0167E0220F331F441F551F6A95D1F7B8
:1024100083E08C930DC0220F331F441F551F12966B
:102420008D919C911397019713969C938E9312977D
:10243000203080E0380780E0480780E4580758F3F0
:1024400014962D933D934D935C93179708952F3FCA
:10245000310579F4411551056105710519F484E0E0
:102460008C93089564FF03C081E08C9312C01C928A
:1024700010C02F57304013963C932E93129783E051
:102480008C9387E0440F551F661F771F8A95D1F7FD
:10249000706414964D935D936D937C931797089594
:1024A0001F93DC01FB019C91923008F447C08081AE
:1024B000823008F443C0943051F411961C9184305A
:1024C00099F58181682F70E0611B71093FC08430EC
:1024D00021F0923031F48230B9F18181882389F181
:1024E0002DC011961C9111978230F1F0818118173F
:1024F000D9F412962D913C91139782819381821782
:10250000930794F028173907BCF014968D919D918C
:102510000D90BC91A02D24813581468157812817CB
:1025200039074A075B0718F4112341F00AC08217E4
:102530009307A407B50740F4112319F061E070E098
:1025400005C06FEF7FEF02C060E070E0CB011F912C
:102550000895629FD001739FF001829FE00DF11DED
:10256000649FE00DF11D929FF00D839FF00D749F0D
:10257000F00D659FF00D9927729FB00DE11DF91FB9
:10258000639FB00DE11DF91FBD01CF011124089516
:1025900097FB092E07260AD077FD04D00CD006D071
:1025A00000201AF4709561957F4F0895F6F7909585
:1025B00081959F4F0895AA1BBB1B51E107C0AA1F1D
:1025C000BB1FA617B70710F0A61BB70B881F991FD4
:1025D0005A95A9F780959095BC01CD0108952F9249
:1025E0003F924F925F926F927F928F929F92AF92A3
:1025F000BF92CF92DF92EF92FF920F931F93CF93F0
:10260000DF93CDB7DEB7CA1BDB0B0FB6F894DEBF86
:102610000FBECDBF09942A88398848885F846E84AC
:102620007D848C849B84AA84B984C884DF80EE80F6
:10263000FD800C811B81AA81B981CE0FD11D0FB6FF
:10264000F894DEBF0FBECDBFED010895CF93DF93A9
:10265000BC018230910510F462E070E0A091320379
:10266000B0913303ED01E0E0F0E040E050E021C044
:10267000888199818617970769F48A819B813097B1
:1026800019F09383828304C09093330380933203C1
:10269000FE0134C06817790738F44115510519F067
:1026A0008417950708F4AC01FE018A819B819C0187
:1026B000E9012097E9F641155105A9F1CA01861BE8
:1026C000970B049708F4BA01E0E0F0E02AC08D917E
:1026D0009C91119784179507F9F46417750781F495
:1026E00012968D919C911397309719F09383828362
:1026F00004C09093330380933203FD0132964FC0A0
:10270000CA01861B970BFD01E80FF91F61937193B6
:1027100002978D939C9343C0FD01828193819C011C
:10272000D9011097A1F68091300390913103892B44
:1027300041F480914D0290914E0290933103809329
:10274000300340914F02509150024115510541F420
:102750004DB75EB780914B0290914C02481B590BCC
:10276000209130033091310324173507B0F4CA01AA
:10277000821B930B8617970780F0AB014E5F5F4F6C
:102780008417950750F0420F531F50933103409325
:102790003003F9016193719302C0E0E0F0E0CF01F2
:1027A000DF91CF910895CF93DF93009709F450C044
:1027B000EC0122971B821A82A0913203B09133035D
:1027C000109709F140E050E0AC17BD0708F1BB835A
:1027D000AA83FE0121913191E20FF31FAE17BF07CB
:1027E00079F48D919C911197280F391F2E5F3F4FDF
:1027F0003983288312968D919C9113979B838A83AA
:102800004115510571F4D0933303C093320320C0B6
:1028100012968D919C911397AD01009711F0DC01F8
:10282000D3CFFA01D383C28321913191E20FF31FF9
:10283000CE17DF0769F488819981280F391F2E5F31
:102840003F4FFA01318320838A819B819383828366
:10285000DF91CF910895F999FECF92BD81BDF89A8D
:10286000992780B50895A6E1B0E044E050E00C94CB
:102870005614262FF999FECF1FBA92BD81BD20BDF7
:102880000FB6F894FA9AF99A0FBE01960895242F7C
:102890000E943A14252F0E943A140C944F140E945F
:1028A0003914272F0C943A14DC01CB01FC01F9995F
:1028B000FECF06C0F2BDE1BDF89A319600B40D928C
:0C28C00041505040B8F70895F894FFCF45
:1028CC00AFF6C74315A41F443E62014459D21B3CCA
:1028DC00F3881B3C9BE61D3C060000010220000017
:1028EC0000000000000000000000000000000000DC
:1028FC0000000000000000000000000000000000CC
:10290C0000000000000000000000000001020203B3
:10291C000303030404040404040404050505050569
:10292C000505050505050505050505060606060646
:10293C00060606060606060606060606060606062B
:10294C000606060606060606060606070707070716
:10295C0007070707070707070707070707070707FB
:10296C0007070707070707070707070707070707EB
:10297C0007070707070707070707070707070707DB
:10298C0007070707070707070707070808080808C6
:10299C0008080808080808080808080808080808AB
:1029AC00080808080808080808080808080808089B
:1029BC00080808080808080808080808080808088B
:1029CC00080808080808080808080808080808087B
:1029DC00080808080808080808080808080808086B
:1029EC00080808080808080808080808080808085B
:1029FC00080808080808080808080808080808084B
:102A0C00080808080808080808080820003403000B
:022A1C000000B8
:00000001FF
